{"abi":[{"type":"constructor","inputs":[{"name":"_title","type":"string","internalType":"string"},{"name":"_author","type":"string","internalType":"string"},{"name":"_pages","type":"uint256","internalType":"uint256"}],"stateMutability":"nonpayable"},{"type":"function","name":"book","inputs":[],"outputs":[{"name":"title","type":"string","internalType":"string"},{"name":"author","type":"string","internalType":"string"},{"name":"pages","type":"uint256","internalType":"uint256"}],"stateMutability":"view"},{"type":"function","name":"get_book","inputs":[],"outputs":[{"name":"","type":"tuple","internalType":"struct Books.Book","components":[{"name":"title","type":"string","internalType":"string"},{"name":"author","type":"string","internalType":"string"},{"name":"pages","type":"uint256","internalType":"uint256"}]}],"stateMutability":"view"},{"type":"function","name":"update_pages","inputs":[{"name":"_pages","type":"uint256","internalType":"uint256"}],"outputs":[],"stateMutability":"nonpayable"}],"bytecode":{"object":"0x608060405234801561001057600080fd5b5060405161075438038061075483398101604081905261002f916101ce565b8251610042906001906020860190610073565b508151610056906002906020850190610073565b506003555050600080546001600160a01b03191633179055610274565b82805461007f9061023a565b90600052602060002090601f0160209004810192826100a157600085556100e7565b82601f106100ba57805160ff19168380011785556100e7565b828001600101855582156100e7579182015b828111156100e75782518255916020019190600101906100cc565b506100f39291506100f7565b5090565b5b808211156100f357600081556001016100f8565b634e487b7160e01b600052604160045260246000fd5b600082601f83011261013357600080fd5b81516001600160401b038082111561014d5761014d61010c565b604051601f8301601f19908116603f011681019082821181831017156101755761017561010c565b8160405283815260209250868385880101111561019157600080fd5b600091505b838210156101b35785820183015181830184015290820190610196565b838211156101c45760008385830101525b9695505050505050565b6000806000606084860312156101e357600080fd5b83516001600160401b03808211156101fa57600080fd5b61020687838801610122565b9450602086015191508082111561021c57600080fd5b5061022986828701610122565b925050604084015190509250925092565b600181811c9082168061024e57607f821691505b60208210810361026e57634e487b7160e01b600052602260045260246000fd5b50919050565b6104d1806102836000396000f3fe608060405234801561001057600080fd5b50600436106100415760003560e01c806305a8da7214610046578063c3cad83e14610066578063e008e5441461007b575b600080fd5b61004e610090565b60405161005d939291906103c2565b60405180910390f35b6100796100743660046103f8565b6101b6565b005b610083610211565b60405161005d9190610411565b60018054819061009f90610461565b80601f01602080910402602001604051908101604052809291908181526020018280546100cb90610461565b80156101185780601f106100ed57610100808354040283529160200191610118565b820191906000526020600020905b8154815290600101906020018083116100fb57829003601f168201915b50505050509080600101805461012d90610461565b80601f016020809104026020016040519081016040528092919081815260200182805461015990610461565b80156101a65780601f1061017b576101008083540402835291602001916101a6565b820191906000526020600020905b81548152906001019060200180831161018957829003601f168201915b5050505050908060020154905083565b6000546001600160a01b0316331461020c5760405162461bcd60e51b81526020600482015260156024820152742cb7ba9030b932903737ba103a34329027bbb732b960591b604482015260640160405180910390fd5b600355565b61023560405180606001604052806060815260200160608152602001600081525090565b600160405180606001604052908160008201805461025290610461565b80601f016020809104026020016040519081016040528092919081815260200182805461027e90610461565b80156102cb5780601f106102a0576101008083540402835291602001916102cb565b820191906000526020600020905b8154815290600101906020018083116102ae57829003601f168201915b505050505081526020016001820180546102e490610461565b80601f016020809104026020016040519081016040528092919081815260200182805461031090610461565b801561035d5780601f106103325761010080835404028352916020019161035d565b820191906000526020600020905b81548152906001019060200180831161034057829003601f168201915b50505050508152602001600282015481525050905090565b6000815180845260005b8181101561039b5760208185018101518683018201520161037f565b818111156103ad576000602083870101525b50601f01601f19169290920160200192915050565b6060815260006103d56060830186610375565b82810360208401526103e78186610375565b915050826040830152949350505050565b60006020828403121561040a57600080fd5b5035919050565b60208152600082516060602084015261042d6080840182610375565b90506020840151601f1984830301604085015261044a8282610375565b915050604084015160608401528091505092915050565b600181811c9082168061047557607f821691505b60208210810361049557634e487b7160e01b600052602260045260246000fd5b5091905056fea26469706673582212202e2b8cd86e7797c10aa33ff1b984055dec3b91448c3e7dff14aabb0b822d9cd364736f6c634300080d0033","linkReferences":{}},"methodIdentifiers":{"book()":"05a8da72","get_book()":"e008e544","update_pages(uint256)":"c3cad83e"},"id":25}